:100000000C942A000C9447000C9447000C94470071
:100010000C9447000C9447000C9423150C94F61490
:100020000C94C9140C949C140C9447000C94470035
:100030000C9447000C9447000C9447000C94470024
:100040000C9447000C9447000C9447000C94470014
:100050000C94470011241FBECFE5D8E0DEBFCDBF12
:1000600011E0A0E6B0E0E4E6F2E302C005900D92F4
:10007000A63CB107D9F711E0A6ECB1E001C01D9292
:10008000AE3CB107E1F70E9450150C9430190C9466
:100090000000EF92FF920F931F937B018C0120E0F1
:1000A00030E040E05FE40E94F50388238CF0C80153
:1000B000B70120E030E040E05FE40E94C1010E940F
:1000C000B3049B01AC01205030404040504806C072
:1000D000C801B7010E94B3049B01AC01B901CA0178
:1000E0001F910F91FF90EF900895A0E0B0E0EBE733
:1000F000F0E00C94F918DC012B01FA019C9192308C
:1001000008F439C1EB018881823008F433C194309E
:1001100069F4843009F02FC111969C91119789815F
:10012000981709F428C1ADEBB0E025C1843009F47B
:1001300021C18230A9F4923009F01DC19A01AD01AC
:1001400088E0EA010990AE01E90109929E0181501F
:10015000C1F7E201898111969C918923818308C1AD
:10016000923009F407C112962D903C901397EB0141
:100170008A819B811496AD90BD90CD90DC901797AD
:10018000EC80FD800E811F819101281B390BB90184
:1001900037FF04C066277727621B730B6032710537
:1001A0000CF061C0121613066CF537014801062EDB
:1001B00004C096948794779467940A94D2F721E0C8
:1001C00030E040E050E004C0220F331F441F551FB1
:1001D0006A95D2F721503040404050402E213F21B7
:1001E00040235123211531054105510521F021E01E
:1001F00030E040E050E079018A01E628F72808293C
:1002000019293CC0232BD1F1260E371E350146019A
:10021000062E04C096948794779467940A94D2F734
:1002200021E030E040E050E004C0220F331F441FC3
:10023000551F6A95D2F721503040404050402A2146
:100240003B214C215D21211531054105510521F04E
:1002500021E030E040E050E059016A01A628B728CB
:10026000C828D9280BC0821593052CF01C01AA249C
:10027000BB24650103C0EE24FF24870111969C91E5
:10028000D20111968C91981709F445C0992339F041
:10029000A80197012A193B094C095D0906C0A6016E
:1002A00095012E193F09400B510B57FD08C01182D3
:1002B0003382228224833583468357831DC081E0A5
:1002C00081833382228288279927DC01821B930B4A
:1002D000A40BB50B84839583A683B7830DC0220F2F
:1002E000331F441F551F24833583468357838281E0
:1002F000938101979383828324813581468157813D
:10030000DA01C9010197A109B1098F5F9F4FAF4F72
:10031000BF4328F30BC0918333822282EA0CFB1C7B
:100320000C1D1D1DE482F5820683178383E0808304
:10033000248135814681578157FF1AC0C901AA27F8
:1003400097FDA095BA2F81709070A070B0705695EF
:10035000479537952795822B932BA42BB52B848318
:100360009583A683B7838281938101969383828349
:10037000DF0101C0D201CD01CDB7DEB7E2E10C94BF
:100380001519A0E2B0E0E7ECF1E00C9405196983DF
:100390007A838B839C832D833E834F835887E9E048
:1003A000EE2EF12CEC0EFD1ECE010196B7010E943F
:1003B0002B068E010F5E1F4FCE010596B8010E94DD
:1003C0002B068A8991E089278A8BC701B801AE0183
:1003D000475E5F4F0E9475000E945605A096E6E0BA
:1003E0000C942119A0E2B0E0E8EFF1E00C940519BB
:1003F00069837A838B839C832D833E834F835887C5
:10040000F9E0EF2EF12CEC0EFD1ECE010196B701A6
:100410000E942B068E010F5E1F4FCE010596B8017C
:100420000E942B06C701B801AE01475E5F4F0E94D4
:1004300075000E945605A096E6E00C942119A0E2F2
:10044000B0E0E5E2F2E00C94F91869837A838B83DB
:100450009C832D833E834F835887CE010196BE0136
:10046000675F7F4F0E942B06CE010596BE016F5E2F
:100470007F4F0E942B069985923088F089898230BF
:10048000C8F0943019F4823051F404C0843029F457
:10049000923081F48DEB90E0C6C0923049F420E0B8
:1004A0009A858A89981321E02A87CE010996BBC0D4
:1004B000823049F420E09A858A89981321E02A8BBA
:1004C000CE014196B0C02D843E844F8458886D88FB
:1004D0007E888F88988CEE24FF248701AA24BB2471
:1004E000650140E050E060E070E0E0E0F0E0C10174
:1004F00081709070892BE9F0E60CF71C081D191D1E
:100500009A01AB012A0D3B1D4C1D5D1D80E090E062
:10051000A0E0B0E0E614F7040805190520F481E036
:1005200090E0A0E0B0E0BA01A901480F591F6A1F8E
:100530007B1FAA0CBB1CCC1CDD1C97FE08C081E0F5
:1005400090E0A0E0B0E0A82AB92ACA2ADB2A3196B6
:10055000E032F10549F0660C771C881C991C569412
:10056000479437942794C3CFFA85EA892B893C892D
:100570008B859C85280F391F2E5F3F4F17C0CA01FE
:1005800081709070892B61F016950795F794E79428
:1005900080E090E0A0E0B0E8E82AF92A0A2B1B2BC3
:1005A00076956795579547952F5F3F4F77FDE7CF36
:1005B0000CC0440F551F661F771F17FD4160EE0CDE
:1005C000FF1C001F111F21503040403090E05907A0
:1005D00090E0690790E4790760F32B8F3C8FDB0193
:1005E000CA018F779070A070B07080349105A1051A
:1005F000B10561F447FD0AC0E114F10401051105DC
:1006000029F0405C5F4F6F4F7F4F40781A8EFE1786
:1006100011F081E08A8F4D8F5E8F6F8F78A383E01A
:10062000898FCE0149960E945605A096E2E10C946E
:100630001519A8E1B0E0EFE1F3E00C94011969832A
:100640007A838B839C832D833E834F835887B9E0C5
:10065000EB2EF12CEC0EFD1ECE010196B7010E948F
:100660002B068E010F5E1F4FCE010596B8010E942A
:100670002B062985223008F47EC03989323010F4E7
:10068000B8017CC08A859A8989278A87243011F02D
:10069000223031F4231709F06EC06DEB70E06EC0AC
:1006A000343039F41D861E861F86188A1C861B86E8
:1006B00004C0323021F484E08987B7015FC02B8504
:1006C0003C858B899C89281B390B3C872B87ED84C3
:1006D000FE840F851889AD88BE88CF88D88CEA142F
:1006E000FB040C051D0540F4EE0CFF1C001F111F40
:1006F000215030403C872B8720E030E040E050E044
:1007000080E090E0A0E0B0E460E070E0EA14FB0478
:100710000C051D0540F0282B392B4A2B5B2BEA18C2
:10072000FB080C091D09B695A79597958795EE0CC2
:10073000FF1C001F111F6F5F7F4F6F31710531F775
:10074000DA01C9018F779070A070B0708034910584
:10075000A105B10561F427FD0AC0E114F10401050A
:10076000110529F0205C3F4F4F4F5F4F20782D87B8
:100770003E874F87588BBE01675F7F4FCB010E943A
:1007800056056896EAE00C941D19A8E1B0E0EBEC80
:10079000F3E00C94051969837A838B839C832D8302
:1007A0003E834F83588789E0E82EF12CEC0EFD1E26
:1007B000CE010196B7010E942B068E010F5E1F4FDE
:1007C000CE010596B8010E942B068985823040F043
:1007D0008989823028F0C701B8010E94A30601C0B0
:1007E0008FEF6896E6E00C942119A8E1B0E0EBEFFA
:1007F000F3E00C94051969837A838B839C832D83A2
:100800003E834F83588789E0E82EF12CEC0EFD1EC5
:10081000CE010196B7010E942B068E010F5E1F4F7D
:10082000CE010596B8010E942B068985823040F0E2
:100830008989823028F0C701B8010E94A30601C04F
:100840008FEF6896E6E00C942119A8E1B0E0EBE2A6
:10085000F4E00C94051969837A838B839C832D8340
:100860003E834F83588789E0E82EF12CEC0EFD1E65
:10087000CE010196B7010E942B068E010F5E1F4F1D
:10088000CE010596B8010E942B068985823040F082
:100890008989823028F0C701B8010E94A30601C0EF
:1008A00081E06896E6E00C942119A8E0B0E0EBE561
:1008B000F4E00C9402199B01AC0183E08983DA0116
:1008C000C9018827B7FD83959927AA27BB27B82E8A
:1008D000211531054105510519F482E089833AC09B
:1008E0008823A9F0203080E0380780E0480780E8BE
:1008F000580729F460E070E080E09FEC30C0EE24FF
:10090000FF248701E21AF30A040B150B02C07901D8
:100910008A018EE1C82ED12CDC82CB82ED82FE8250
:100920000F831887C801B7010E94070501971816A1
:10093000190684F4082E04C0EE0CFF1C001F111FC2
:100940000A94D2F7ED82FE820F831887C81AD90A5B
:10095000DC82CB82BA82CE0101960E94560528968F
:10096000E9E00C941E19ACE0B0E0E9EBF4E00C9483
:10097000091969837A838B839C83CE010196BE011A
:100980006B5F7F4F0E942B068D81823061F1823038
:1009900050F1843021F48E81882351F12EC02F81B3
:1009A000388537FD20C06E812F3131051CF066235C
:1009B000F9F023C08EE190E0821B930B29853A85E4
:1009C0004B855C8504C056954795379527958A9544
:1009D000D2F76623B1F050954095309521953F4F61
:1009E0004F4F5F4F0EC020E030E040E050E009C0C4
:1009F0002FEF3FEF4FEF5FE704C020E030E040E033
:100A000050E8B901CA012C96E2E00C942519EF9246
:100A1000FF920F931F937B018C0180E0E81680E02A
:100A2000F80681E0080780E0180788F48FEFE816E1
:100A3000F1040105110531F028F088E090E0A0E014
:100A4000B0E017C080E090E0A0E0B0E012C080E02D
:100A5000E81680E0F80680E0080781E0180728F033
:100A600088E190E0A0E0B0E004C080E190E0A0E088
:100A7000B0E020E230E040E050E0281B390B4A0BA8
:100A80005B0B04C016950795F794E7948A95D2F707
:100A9000F701EB53FF4F8081281B310941095109B0
:100AA000C9011F910F91FF90EF900895DF92EF928F
:100AB000FF920F931F93FC01E480F580068117815C
:100AC000D1808081823048F480E090E0A0E1B0E005
:100AD000E82AF92A0A2B1B2BA5C0843009F49FC0F1
:100AE000823021F4EE24FF24870105C0E114F104D3
:100AF0000105110519F4E0E0F0E096C06281738110
:100B00009FEF623879070CF05BC022E83FEF261BAD
:100B1000370B2A3131052CF020E030E040E050E086
:100B20002AC0B801A701022E04C076956795579593
:100B300047950A94D2F781E090E0A0E0B0E004C0CD
:100B4000880F991FAA1FBB1F2A95D2F70197A109E9
:100B5000B1098E219F21A023B1230097A105B105E2
:100B600021F081E090E0A0E0B0E09A01AB01282BF9
:100B7000392B4A2B5B2BDA01C9018F779070A0705B
:100B8000B07080349105A105B10539F427FF09C083
:100B9000205C3F4F4F4F5F4F04C0215C3F4F4F4F92
:100BA0005F4FE0E0F0E02030A0E03A07A0E04A0725
:100BB000A0E45A0710F0E1E0F0E079018A0127C0D3
:100BC0006038710564F5FB01E158FF4FD801C7019A
:100BD0008F779070A070B07080349105A105B10539
:100BE00039F4E7FE0DC080E490E0A0E0B0E004C07E
:100BF0008FE390E0A0E0B0E0E80EF91E0A1F1B1F93
:100C000017FF05C016950795F794E794319687E08E
:100C100016950795F794E7948A95D1F705C0EE24C9
:100C2000FF248701EFEFF0E06E2F67956627679549
:100C3000902F9F77D794DD24D7948E2F8695492FB8
:100C4000462B582F5D29B701CA011F910F91FF90C4
:100C5000EF90DF900895FC01DB01408151812281FA
:100C6000622F6F7770E0221F2227221F9381892F26
:100C7000880F822B282F30E0991F9927991F1196F2
:100C80009C93119721153105A9F541155105610571
:100C9000710511F482E037C082E89FEF13969C93B0
:100CA0008E9312979A01AB0167E0220F331F441F06
:100CB000551F6A95D1F783E08C930DC0220F331F27
:100CC000441F551F12968D919C911397019713966F
:100CD0009C938E931297203080E0380780E048077D
:100CE00080E4580758F314962D933D934D935C93ED
:100CF000179708952F3F310579F441155105610586
:100D0000710519F484E08C93089564FF03C081E0B9
:100D10008C9312C01C9210C02F57304013963C93F6
:100D20002E93129783E08C9387E0440F551F661F24
:100D3000771F8A95D1F7706414964D935D936D93E8
:100D40007C93179708951F93DC01FB019C919230CF
:100D500008F447C08081823008F443C0943051F4D5
:100D600011961C91843099F58181682F70E0611B88
:100D700071093FC0843021F0923031F48230B9F1F2
:100D80008181882389F12DC011961C9111978230A1
:100D9000F1F081811817D9F412962D913C91139797
:100DA000828193818217930794F028173907BCF04A
:100DB00014968D919D910D90BC91A02D248135812B
:100DC00046815781281739074A075B0718F4112312
:100DD00041F00AC082179307A407B50740F4112316
:100DE00019F061E070E005C06FEF7FEF02C060E0D6
:100DF00070E0CB011F910895DF93CF93CDB7DEB79D
:100E000088E061E00E941D07CF91DF910895DF9394
:100E1000CF93CDB7DEB788E061E00E940808CF919C
:100E2000DF910895DF93CF93CDB7DEB788E060E020
:100E30000E940808CF91DF910895DF93CF9300D0EF
:100E400000D000D0CDB7DEB78B836C838B818695C5
:100E5000869586958A838B81877089838A81282FDE
:100E600030E03E832D838D819E818130910509F490
:100E700043C02D813E81223031052CF48D819E812D
:100E8000009771F0BCC02D813E812230310509F4FC
:100E90005FC08D819E818330910509F485C0AFC00C
:100EA0008C818130A1F4AAE3B0E0EAE3F0E0808134
:100EB000482F8981282F30E081E090E0022E02C087
:100EC000880F991F0A94E2F7842B8C9398C0AAE3A9
:100ED000B0E0EAE3F0E08081482F8981282F30E0FC
:100EE00081E090E0022E02C0880F991F0A94E2F779
:100EF000809584238C9383C08C818130A1F4A7E3F7
:100F0000B0E0E7E3F0E08081482F8981282F30E0CE
:100F100081E090E0022E02C0880F991F0A94E2F748
:100F2000842B8C936CC0A7E3B0E0E7E3F0E0808112
:100F3000482F8981282F30E081E090E0022E02C006
:100F4000880F991F0A94E2F7809584238C9357C0E9
:100F50008C818130A1F4A4E3B0E0E4E3F0E080818F
:100F6000482F8981282F30E081E090E0022E02C0D6
:100F7000880F991F0A94E2F7842B8C9340C0A4E356
:100F8000B0E0E4E3F0E08081482F8981282F30E051
:100F900081E090E0022E02C0880F991F0A94E2F7C8
:100FA000809584238C932BC08C818130A1F4A1E3A4
:100FB000B0E0E1E3F0E08081482F8981282F30E024
:100FC00081E090E0022E02C0880F991F0A94E2F798
:100FD000842B8C9314C0A1E3B0E0E1E3F0E08081C6
:100FE000482F8981282F30E081E090E0022E02C056
:100FF000880F991F0A94E2F7809584238C93269694
:101000000FB6F894DEBF0FBECDBFCF91DF9108952C
:10101000DF93CF9300D000D000D0CDB7DEB78B8365
:101020006C838B818695869586958A838B81877064
:1010300089838A81282F30E03E832D838D819E8194
:101040008130910509F443C02D813E812230310564
:101050002CF48D819E81009771F0BCC02D813E8162
:101060002230310509F45FC08D819E818330910566
:1010700009F485C0AFC08C818130A1F4ABE3B0E04E
:10108000EBE3F0E08081482F8981282F30E081E078
:1010900090E0022E02C0880F991F0A94E2F7842B79
:1010A0008C9398C0ABE3B0E0EBE3F0E08081482F95
:1010B0008981282F30E081E090E0022E02C0880F65
:1010C000991F0A94E2F7809584238C9383C08C81C6
:1010D0008130A1F4A8E3B0E0E8E3F0E08081482F9C
:1010E0008981282F30E081E090E0022E02C0880F35
:1010F000991F0A94E2F7842B8C936CC0A8E3B0E0AC
:10110000E8E3F0E08081482F8981282F30E081E0FA
:1011100090E0022E02C0880F991F0A94E2F7809592
:1011200084238C9357C08C818130A1F4A5E3B0E077
:10113000E5E3F0E08081482F8981282F30E081E0CD
:1011400090E0022E02C0880F991F0A94E2F7842BC8
:101150008C9340C0A5E3B0E0E5E3F0E08081482F48
:101160008981282F30E081E090E0022E02C0880FB4
:10117000991F0A94E2F7809584238C932BC08C816D
:101180008130A1F4A2E3B0E0E2E3F0E08081482FF7
:101190008981282F30E081E090E0022E02C0880F84
:1011A000991F0A94E2F7842B8C9314C0A2E3B0E059
:1011B000E2E3F0E08081482F8981282F30E081E050
:1011C00090E0022E02C0880F991F0A94E2F78095E2
:1011D00084238C9326960FB6F894DEBF0FBECDBF46
:1011E000CF91DF910895DF93CF9300D000D000D04E
:1011F000CDB7DEB78C8319828C81803218F082E003
:1012000089836FC08C818695869586958B838C812A
:1012100087708A838B81282F30E03E832D834D8118
:101220005E814130510541F18D819E818230910571
:1012300034F42D813E812115310561F052C04D817C
:101240005E814230510551F18D819E81833091053F
:10125000B9F147C0E9E3F0E08081282F30E08A81CE
:10126000882F90E0A90102C0559547958A95E2F72D
:10127000CA018170898335C0E6E3F0E08081282FC0
:1012800030E08A81882F90E0A90102C055954795EA
:101290008A95E2F7CA018170898323C0E3E3F0E015
:1012A0008081282F30E08A81882F90E0A90102C038
:1012B000559547958A95E2F7CA018170898311C0D7
:1012C000E0E3F0E08081282F30E08A81882F90E0F1
:1012D000A90102C0559547958A95E2F7CA01817028
:1012E0008983898126960FB6F894DEBF0FBECDBFE5
:1012F000CF91DF910895DF93CF93CDB7DEB70E94F2
:10130000640BCF91DF910895DF93CF9300D000D08D
:1013100000D0CDB7DEB78A837C836B834D838A810F
:10132000882341F48B819C81892F9927880F806ABB
:1013300089830AC08A81813039F48B819C81892F0D
:101340009927880F886A89830E94890B88E00E9408
:10135000E90B8130E9F489810E94A50B88E10E94A4
:10136000E90B8130A9F48B810E94BD0B88E20E94B9
:10137000E90B813069F48D810E94BD0B88E20E94E7
:10138000E90B813029F40E949A0B81E08E8301C021
:101390001E828E8126960FB6F894DEBF0FBECDBF9B
:1013A000CF91DF910895DF93CF93CDB7DEB7279725
:1013B0000FB6F894DEBF0FBECDBF8A837C836B83EC
:1013C0005E834D838A81882341F48B819C81892FA0
:1013D0009927880F806A89830AC08A81813039F40D
:1013E0008B819C81892F9927880F886A89830E9425
:1013F000890B88E00E94E90B813051F589810E94B8
:10140000A50B88E10E94E90B813011F58B810E94C8
:10141000BD0B88E20E94E90B8130D1F40E94890B58
:1014200080E10E94E90B813099F4898181600E94FA
:10143000A50B80E40E94E90B813051F40E94D50B8A
:10144000ED81FE8180830E949A0B81E08F8301C031
:101450001F828F8127960FB6F894DEBF0FBECDBFD7
:10146000CF91DF910895DF93CF93CDB7DEB7A197EA
:101470000FB6F894DEBF0FBECDBF8F8F79A368A3E0
:101480008F8D882309F08AC01E8E1D8E7EC02D8D03
:101490003E8D80E0B90140E00E94840980E090E048
:1014A000A0E2B1E4898F9A8FAB8FBC8F698D7A8D62
:1014B0008B8D9C8D20E030E04AEF54E40E941F02A7
:1014C000DC01CB018D8B9E8BAF8BB88F6D897E89B4
:1014D0008F89988D20E030E040E85FE30E9425048A
:1014E00088232CF481E090E09C8B8B8B3FC06D892E
:1014F0007E898F89988D20E03FEF4FE757E40E9467
:10150000C50318164CF5698D7A8D8B8D9C8D20E066
:1015100030E040E251E40E941F02DC01CB01BC013B
:10152000CD010E944900DC01CB019C8B8B8B0FC04D
:1015300088EC90E09A8B898B89899A890197F1F7D9
:101540009A8B898B8B899C8901979C8B8B8B8B8940
:101550009C89009769F714C06D897E898F89988D61
:101560000E944900DC01CB019C8B8B8B8B899C8971
:10157000988B8F878F8598890197F1F7988B8F8744
:101580008D8D9E8D01969E8F8D8F2D8D3E8D88A188
:1015900099A12817390708F47ACF8DC08F8D813033
:1015A00009F089C01E8E1D8E7EC02D8D3E8D81E07E
:1015B000B90140E00E94840980E090E0A0E2B1E43B
:1015C0008B879C87AD87BE876B857C858D859E8547
:1015D00020E030E04AEF54E40E941F02DC01CB011E
:1015E0008F839887A987BA876F81788589859A853F
:1015F00020E030E040E85FE30E94250488232CF4DB
:1016000081E090E09E838D833FC06F8178858985DE
:101610009A8520E03FEF4FE757E40E94C503181674
:101620004CF56B857C858D859E8520E030E040E221
:1016300051E40E941F02DC01CB01BC01CD010E94DC
:101640004900DC01CB019E838D830FC088EC90E0C4
:101650009C838B838B819C810197F1F79C838B8387
:101660008D819E8101979E838D838D819E810097C0
:1016700069F714C06F81788589859A850E94490031
:10168000DC01CB019E838D838D819E819A8389832A
:1016900089819A810197F1F79A8389838D8D9E8D37
:1016A00001969E8F8D8F2D8D3E8D88A199A1281733
:1016B000390708F47ACFA1960FB6F894DEBF0FBEB3
:1016C000CDBFCF91DF910895DF93CF93CDB7DEB734
:1016D000E6E5F0E0808184608083E6E5F0E08081EB
:1016E00080648083E0E2F0E082E08083E1E2F0E089
:1016F00080818C7F8083E2E2F0E080818E7F808336
:10170000E2E2F0E08081817082608083CF91DF919E
:101710000895DF93CF93CDB7DEB7E6E5F0E084EA36
:101720008083E6E5F0E0808180788823D1F3CF9153
:10173000DF910895DF93CF93CDB7DEB7E6E5F0E014
:1017400084E98083CF91DF910895DF93CF930F9247
:10175000CDB7DEB78983E3E2F0E089818083E6E5F7
:10176000F0E084E88083E6E5F0E0808180788823FB
:10177000D1F30F90CF91DF910895DF93CF930F9224
:10178000CDB7DEB78983E3E2F0E089818083E6E5C7
:10179000F0E084E88083E6E5F0E0808180788823CB
:1017A000D1F30F90CF91DF910895DF93CF93CDB711
:1017B000DEB7E6E5F0E084E88083E6E5F0E08081EE
:1017C00080788823D1F3E3E2F0E08081CF91DF914C
:1017D0000895DF93CF9300D0CDB7DEB78983898199
:1017E000282F30E0E1E2F0E08081882F90E0887FD0
:1017F00090702817390719F481E08A8301C01A8292
:101800008A810F900F90CF91DF910895DF93CF934E
:10181000CDB7DEB782E161E00E941D0783E161E0A0
:101820000E941D0784E161E00E941D0785E161E0DF
:101830000E941D0786E160E00E941D0787E160E0CD
:101840000E941D0786E060E00E941D0787E060E0BF
:101850000E941D0782E161E00E94080883E161E0C7
:101860000E94080884E161E00E94080885E161E0C7
:101870000E94080886E161E00E94080887E161E0B3
:101880000E94080886E061E00E94080887E061E0A5
:101890000E940808CF91DF910895DF93CF93CDB7D1
:1018A000DEB72E970FB6F894DEBF0FBECDBF82E134
:1018B00060E00E94080883E161E00E94080884E17A
:1018C00061E00E94080885E161E00E94080886E165
:1018D0000E94F3088D8387E10E94F3088C8386E0E1
:1018E0000E94F3088B8387E00E94F3088A831982A1
:1018F0008D81882F90E082959295907F9827807FA8
:101900009827982F8981892B89838C81882F90E053
:10191000880F991F82959295907F9827807F9827AE
:10192000982F8981892B89838B81882F90E00024CF
:10193000969587950794969587950794982F802D6F
:10194000982F8981892B89838A81882F90E09695A9
:10195000982F882797958795982F8981892B898338
:101960008981282F30E03E872D878D859E85803B9D
:101970009105D9F02D853E85213B310534F48D85C7
:101980009E8580379105A1F016C02D853E85203DAE
:10199000310541F08D859E85803E910561F491E091
:1019A0009C8796C122E02C8793C133E03C8790C18D
:1019B0008BE28C878DC182E161E00E94080883E19F
:1019C00060E00E94080884E161E00E94080885E167
:1019D00061E00E94080886E10E94F3088D8387E198
:1019E0000E94F3088C8386E00E94F3088B8387E0D3
:1019F0000E94F3088A8319828D81882F90E0829556
:101A00009295907F9827807F9827982F8981892B9E
:101A100089838C81882F90E0880F991F82959295F9
:101A2000907F9827807F9827982F8981892B898399
:101A30008B81882F90E00024969587950794969542
:101A400087950794982F802D982F8981892B8983DA
:101A50008A81882F90E09695982F8827979587956B
:101A6000982F8981892B89838981282F30E03B87B2
:101A70002A878A859B85803B9105D9F02A853B85FD
:101A8000213B310534F48A859B8580379105A1F08F
:101A900016C02A853B85203D310541F08A859B850E
:101AA000803E910561F494E09C8712C125E02C876B
:101AB0000FC136E03C870CC18DE28C8709C182E101
:101AC00061E00E94080883E161E00E94080884E167
:101AD00060E00E94080885E161E00E94080886E154
:101AE0000E94F3088D8387E10E94F3088C8386E0CF
:101AF0000E94F3088B8387E00E94F3088A8319828F
:101B00008D81882F90E082959295907F9827807F95
:101B10009827982F8981892B89838C81882F90E041
:101B2000880F991F82959295907F9827807F98279C
:101B3000982F8981892B89838B81882F90E00024BD
:101B4000969587950794969587950794982F802D5D
:101B5000982F8981892B89838A81882F90E0969597
:101B6000982F882797958795982F8981892B898326
:101B70008981282F30E03987288788859985803B9F
:101B80009105D9F028853985213B310534F48885C4
:101B9000998580379105A1F016C028853985203DAB
:101BA000310541F088859985803E910561F497E083
:101BB0009C878EC028E02C878BC039E03C8788C08A
:101BC0008AE28C8785C082E161E00E94080883E197
:101BD00061E00E94080884E161E00E94080885E154
:101BE00060E00E94080886E10E94F3088D8387E187
:101BF0000E94F3088C8386E00E94F3088B8387E0C1
:101C00000E94F3088A8319828D81882F90E0829543
:101C10009295907F9827807F9827982F8981892B8C
:101C200089838C81882F90E0880F991F82959295E7
:101C3000907F9827807F9827982F8981892B898387
:101C40008B81882F90E00024969587950794969530
:101C500087950794982F802D982F8981892B8983C8
:101C60008A81882F90E09695982F88279795879559
:101C7000982F8981892B89838981282F30E03F83A0
:101C80002E838E819F81803B9105D1F02E813F81F3
:101C9000213B310534F48E819F818037910599F085
:101CA00015C02E813F81203D310541F08E819F81FD
:101CB000803E910559F493E29C870AC01C8608C0B7
:101CC0002DE32C8705C03FE23C8702C08FEF8C8755
:101CD0008C852E960FB6F894DEBF0FBECDBFCF9188
:101CE000DF910895DF93CF93CDB7DEB72F970FB66F
:101CF000F894DEBF0FBECDBF8F8780E060E00E940A
:101D0000080881E060E00E94080882E061E00E942B
:101D100008088F85982F917083E0692F0E9408082A
:101D20008F858695982F917084E0692F0E9408080E
:101D30008F8586958695982F91708AE1692F0E94EC
:101D400008088F85869586958695982F91708BE1EA
:101D5000692F0E9408088F8582958F70982F917047
:101D60008CE1692F0E9408088F858295869587707F
:101D7000982F917085E0692F0E9408088F858295C1
:101D8000869586958370982F91708EE1692F0E94B9
:101D900008088F85982F991F9927991F8FE1692F20
:101DA0000E94080880E090E0A0E0B0E48B879C8768
:101DB000AD87BE876B857C858D859E8520E030E074
:101DC0004AEF54E40E941F02DC01CB018F83988705
:101DD000A987BA876F81788589859A8520E030E068
:101DE00040E85FE30E94250488232CF481E090E022
:101DF0009E838D833FC06F81788589859A8520E099
:101E00003FEF4FE757E40E94C50318164CF56B856A
:101E10007C858D859E8520E030E040E251E40E9483
:101E20001F02DC01CB01BC01CD010E944900DC0195
:101E3000CB019E838D830FC088EC90E09C838B83C5
:101E40008B819C810197F1F79C838B838D819E818F
:101E500001979E838D838D819E81009769F714C0C1
:101E60006F81788589859A850E944900DC01CB01C4
:101E70009E838D838D819E819A83898389819A81B6
:101E80000197F1F79A83898382E060E00E94080855
:101E90002F960FB6F894DEBF0FBECDBFCF91DF9166
:101EA0000895DF93CF93CDB7DEB7AA970FB6F89416
:101EB000DEBF0FBECDBF80E061E00E941D0781E064
:101EC00061E00E941D0782E061E00E941D0783E03F
:101ED00061E00E941D0784E061E00E941D078AE125
:101EE00061E00E941D078BE161E00E941D078CE10B
:101EF00061E00E941D0785E061E00E941D078EE100
:101F000061E00E941D078FE161E00E941D0788E3E8
:101F10000E94720E80E090E0A0E0B0E48FA398A74A
:101F2000A9A7BAA76FA178A589A59AA520E030E056
:101F30004AEF54E40E941F02DC01CB018BA39CA357
:101F4000ADA3BEA36BA17CA18DA19EA120E030E03A
:101F500040E85FE30E94250488232CF481E090E0B0
:101F60009AA389A33FC06BA17CA18DA19EA120E073
:101F70003FEF4FE757E40E94C50318164CF56FA1D9
:101F800078A589A59AA520E030E040E251E40E94BE
:101F90001F02DC01CB01BC01CD010E944900DC0124
:101FA000CB019AA389A30FC088EC90E098A38F8FF0
:101FB0008F8D98A10197F1F798A38F8F89A19AA18E
:101FC00001979AA389A389A19AA1009769F714C0E0
:101FD0006BA17CA18DA19EA10E944900DC01CB01D7
:101FE0009AA389A389A19AA19E8F8D8F8D8D9E8D95
:101FF0000197F1F79E8F8D8F8CE00E94720E80E02A
:1020000090E0A0E0B0E4898F9A8FAB8FBC8F698D90
:102010007A8D8B8D9C8D20E030E04AEF54E40E9455
:102020001F02DC01CB018D8B9E8BAF8BB88F6D892E
:102030007E898F89988D20E030E040E85FE30E9440
:10204000250488232CF481E090E09C8B8B8B3FC08F
:102050006D897E898F89988D20E03FEF4FE757E4A7
:102060000E94C50318164CF5698D7A8D8B8D9C8D59
:1020700020E030E040E251E40E941F02DC01CB018D
:10208000BC01CD010E944900DC01CB019C8B8B8BF4
:102090000FC088EC90E09A8B898B89899A89019787
:1020A000F1F79A8B898B8B899C8901979C8B8B8B01
:1020B0008B899C89009769F714C06D897E898F8907
:1020C000988D0E944900DC01CB019C8B8B8B8B8906
:1020D0009C89988B8F878F8598890197F1F7988BCA
:1020E0008F8781E00E94720E80E090E0A0E0B0E473
:1020F0008B879C87AD87BE876B857C858D859E850C
:1021000020E030E04AEF54E40E941F02DC01CB01E2
:102110008F839887A987BA876F81788589859A8503
:1021200020E030E040E85FE30E94250488232CF49F
:1021300081E090E09E838D833FC06F8178858985A3
:102140009A8520E03FEF4FE757E40E94C503181639
:102150004CF56B857C858D859E8520E030E040E2E6
:1021600051E40E941F02DC01CB01BC01CD010E94A1
:102170004900DC01CB019E838D830FC088EC90E089
:102180009C838B838B819C810197F1F79C838B834C
:102190008D819E8101979E838D838D819E81009785
:1021A00069F714C06F81788589859A850E944900F6
:1021B000DC01CB019E838D838D819E819A838983EF
:1021C00089819A810197F1F79A838983AA960FB63C
:1021D000F894DEBF0FBECDBFCF91DF910895DF939E
:1021E000CF93CDB7DEB72F970FB6F894DEBF0FBEF3
:1021F000CDBF8F8780E061E00E94080881E060E049
:102200000E94080882E061E00E9408088F85982FEC
:10221000917083E0692F0E9408088F858695982F1A
:10222000917084E0692F0E9408088F8586958695B5
:10223000982F91708AE1692F0E9408088F858695F2
:1022400086958695982F91708BE1692F0E940808DA
:102250008F8582958F70982F91708CE1692F0E94E5
:1022600008088F85829586958770982F917085E0F4
:10227000692F0E9408088F858295869586958370C0
:10228000982F91708EE1692F0E9408088F85982FF2
:10229000991F9927991F8FE1692F0E94080880E0F4
:1022A00090E0A0E0B0E48B879C87AD87BE876B850C
:1022B0007C858D859E8520E030E04AEF54E40E94C5
:1022C0001F02DC01CB018F839887A987BA876F81B2
:1022D000788589859A8520E030E040E85FE30E94B8
:1022E000250488232CF481E090E09E838D833FC0F9
:1022F0006F81788589859A8520E03FEF4FE757E425
:102300000E94C50318164CF56B857C858D859E85CE
:1023100020E030E040E251E40E941F02DC01CB01EA
:10232000BC01CD010E944900DC01CB019E838D835D
:102330000FC088EC90E09C838B838B819C810197FC
:10234000F1F79C838B838D819E8101979E838D8382
:102350008D819E81009769F714C06F81788589858A
:102360009A850E944900DC01CB019E838D838D817B
:102370009E819A83898389819A810197F1F79A8353
:10238000898382E060E00E9408082F960FB6F894D7
:10239000DEBF0FBECDBFCF91DF910895DF93CF9306
:1023A00000D00F92CDB7DEB79B838A8319820EC00F
:1023B0008981282F30E08A819B81FC01E20FF31F85
:1023C00080810E94EF1089818F5F89838981282F06
:1023D00030E08A819B81FC01E20FF31F808188231A
:1023E00039F70F900F900F90CF91DF910895DF9301
:1023F000CF9300D00F92CDB7DEB789838981282F84
:1024000030E03B832A838A819B8184309105C9F126
:102410002A813B812530310584F48A819B81823079
:10242000910529F12A813B81233031052CF58A81E0
:102430009B8181309105B1F03CC02A813B812630DF
:10244000310549F18A819B8186309105FCF02A8112
:102450003B812730310521F18A819B8188309105AC
:1024600021F127C089E061E00E941D0722C081E1BF
:1024700061E00E941D071DC082E161E00E941D070E
:1024800018C083E161E00E941D0713C084E161E090
:102490000E941D070EC085E161E00E941D0709C072
:1024A00086E161E00E941D0704C087E161E00E94AF
:1024B0001D070F900F900F90CF91DF910895DF933C
:1024C000CF9300D00F92CDB7DEB789838981282FB3
:1024D00030E03B832A838A819B8184309105C9F156
:1024E0002A813B812530310584F48A819B818230A9
:1024F000910529F12A813B81233031052CF58A8110
:102500009B8181309105B1F03CC02A813B8126300E
:10251000310549F18A819B8186309105FCF02A8141
:102520003B812730310521F18A819B8188309105DB
:1025300021F127C089E061E00E94080822C081E102
:1025400061E00E9408081DC082E161E00E94080865
:1025500018C083E161E00E94080813C084E161E0D3
:102560000E9408080EC085E161E00E94080809C0C9
:1025700086E161E00E94080804C087E161E00E94F2
:1025800008080F900F900F90CF91DF910895DF937F
:10259000CF9300D00F92CDB7DEB789838981282FE2
:1025A00030E03B832A838A819B8184309105C9F185
:1025B0002A813B812530310584F48A819B818230D8
:1025C000910529F12A813B81233031052CF58A813F
:1025D0009B8181309105B1F03CC02A813B8126303E
:1025E000310549F18A819B8186309105FCF02A8171
:1025F0003B812730310521F18A819B81883091050B
:1026000021F127C089E060E00E94080822C081E132
:1026100060E00E9408081DC082E160E00E94080896
:1026200018C083E160E00E94080813C084E160E004
:102630000E9408080EC085E160E00E94080809C0F9
:1026400086E160E00E94080804C087E160E00E9423
:1026500008080F900F900F90CF91DF910895DF93AE
:10266000CF93CDB7DEB78DE161E00E941D070E94D8
:102670009B1380E29EE40E94E813CF91DF910895BE
:10268000DF93CF93CDB7DEB727970FB6F894DEBFB1
:102690000FBECDBF8F838F81882F90E0AA2797FD33
:1026A000A095BA2FBC01CD010E945504DC01CB01DD
:1026B000BC01CD0126E636E646E050E40E941F024A
:1026C000DC01CB01BC01CD0120E030E044E353E468
:1026D0000E941903DC01CB01BC01CD012DEC3CECC7
:1026E0004CEC5EE30E94F201DC01CB018B839C8306
:1026F000AD83BE836B817C818D819E8120E030E043
:102700004AE754E40E941F02DC01CB01BC01CD0169
:102710000E944900DC01CB019A83898389819A81D7
:102720000E940C1427960FB6F894DEBF0FBECDBFE3
:10273000CF91DF910895DF93CF93CDB7DEB7EFE46C
:10274000F0E080818E7F8083EFE4F0E08081826022
:102750008083EEE4F0E0808188608083EEE4F0E046
:10276000808180618083EFE4F0E080818F738068F6
:102770008083EEE4F0E08081887F82608083E9E5F9
:10278000F0E080818B7F8083E9E5F0E080818F7EBF
:102790008083E9E5F0E08081877F8083E9E5F0E0F0
:1027A00080818F7D8083CF91DF910895DF93CF93D8
:1027B00000D0CDB7DEB79A838983ECE4F0E089815D
:1027C0009A81918380830F900F90CF91DF9108952C
:1027D000DF93CF9300D0CDB7DEB79A838983E6E449
:1027E000F0E089819A81918380830F900F90CF913F
:1027F000DF910895DF93CF9300D0CDB7DEB7E6E445
:10280000F0E0808191819A83898389819A810F90F8
:102810000F90CF91DF910895DF93CF9300D0CDB784
:10282000DEB79A838983EAE4F0E089819A81918313
:1028300080830F900F90CF91DF910895DF93CF9316
:1028400000D0CDB7DEB79A838983E8E4F0E08981D0
:102850009A81918380830F900F90CF91DF9108959B
:10286000DF93CF93CDB7DEB7EEE4F0E080818064F4
:102870008083CF91DF910895DF93CF93CDB7DEB7FB
:10288000EEE4F0E080818F7B8083CF91DF9108952B
:10289000DF93CF93CDB7DEB7EEE4F0E08081887FA1
:1028A0008083CF91DF910895DF93CF9300D0CDB790
:1028B000DEB79A83898389819A819093CB01809333
:1028C000CA010F900F90CF91DF910895DF93CF93BE
:1028D00000D0CDB7DEB79A83898389819A8190939E
:1028E000CD018093CC010F900F90CF91DF9108958F
:1028F000DF93CF9300D0CDB7DEB79A8389838981E8
:102900009A819093C9018093C8010F900F90CF9145
:10291000DF910895DF93CF9300D0CDB7DEB79A83D0
:10292000898389819A819093C7018093C6010F9012
:102930000F90CF91DF9108951F920F920FB60F92D3
:1029400011242F933F934F935F936F937F938F93B4
:102950009F93AF93BF93EF93FF93DF93CF93CDB745
:10296000DEB7E091CA01F091CB010995CF91DF91DB
:10297000FF91EF91BF91AF919F918F917F916F9157
:102980005F914F913F912F910F900FBE0F901F902D
:1029900018951F920F920FB60F9211242F933F9309
:1029A0004F935F936F937F938F939F93AF93BF9357
:1029B000EF93FF93DF93CF93CDB7DEB7E091C801DC
:1029C000F091C9010995CF91DF91FF91EF91BF91EE
:1029D000AF919F918F917F916F915F914F913F91B7
:1029E0002F910F900FBE0F901F9018951F920F926E
:1029F0000FB60F9211242F933F934F935F936F93D2
:102A00007F938F939F93AF93BF93EF93FF93DF9346
:102A1000CF93CDB7DEB7E091CC01F091CD01099510
:102A2000CF91DF91FF91EF91BF91AF919F918F91E6
:102A30007F916F915F914F913F912F910F900FBEBA
:102A40000F901F9018951F920F920FB60F9211249E
:102A50002F933F934F935F936F937F938F939F93A6
:102A6000AF93BF93EF93FF93DF93CF93CDB7DEB7D1
:102A7000E091C601F091C7010995CF91DF91FF91D7
:102A8000EF91BF91AF919F918F917F916F915F91E6
:102A90004F913F912F910F900FBE0F901F9018955F
:102AA0000F931F93DF93CF93CDB7DEB7CF54D040B2
:102AB0000FB6F894DEBF0FBECDBFFE01E35BFF4F44
:102AC0001082FE01E25BFF4F1082FE01E15BFF4FCF
:102AD0001082FE01E45BFF4F1082FE01E55BFF4FB9
:102AE00081E08083FE01E65BFF4F1082FE01E75B21
:102AF000FF4F1082FE01E85BFF4F1082FE01E95B91
:102B0000FF4F10820E94060C0E94FC060E947B0967
:102B10000E942F130E94510F81E00E94F7119E0125
:102B2000225B3F4F80E06BE070E0A9010E94D30977
:102B3000FE01ED5BFF4F80E090E0A0E2B1E4808316
:102B40009183A283B3838E01015C1F4FFE01ED5B75
:102B5000FF4F608171818281938120E030E04AEFF4
:102B600054E40E941F02DC01CB01F80180839183B1
:102B7000A283B383FE01FF9660817181828193817C
:102B800020E030E040E85FE30E94250488232CF435
:102B900081E090E09EAF8DAF46C0FE01FF96608160
:102BA00071818281938120E03FEF4FE757E40E94DB
:102BB000C503181664F5FE01ED5BFF4F608171815E
:102BC0008281938120E030E040E251E40E941F02C4
:102BD000DC01CB01BC01CD010E944900DC01CB012D
:102BE0009EAF8DAF0FC088EC90E09CAF8BAF8BADEC
:102BF0009CAD0197F1F79CAF8BAF8DAD9EAD01976A
:102C00009EAF8DAF8DAD9EAD009769F7D1C2FE012D
:102C1000FF9660817181828193810E944900DC016D
:102C2000CB019EAF8DAF8DAD9EAD9AAF89AF89AD13
:102C30009AAD0197F1F79AAF89AFBAC20E944D0CD5
:102C4000FE01E35BFF4F8083FE01E95BFF4F808164
:102C5000882319F580E80E94720E80E690E00E94B9
:102C6000CE1180EC0E94720EFE01E75BFF4F808167
:102C7000882329F480E790E00E94CE1104C08CE7FD
:102C800090E00E94CE11FE01E55BFF4F81E0808362
:102C9000FE01E95BFF4F81E08083FE01E55BFF4FB2
:102CA0008081813009F0F2C1FE01E35BFF4F80813A
:102CB0008F3F09F4EBC1FE01E35BFF4F80818A3057
:102CC00008F019C1FE01E35BFF4F8081805D0E9427
:102CD000EF10FE01E45BFF4F8081282F30E0AE0152
:102CE000415B5F4F80E0B9010E94D30980E090E032
:102CF000A0E2B1E48DAB9EABAFABB8AF6DA97EA93E
:102D00008FA998AD20E030E04AEF54E40E941F0202
:102D1000DC01CB0189AB9AABABABBCAB69A97AA99F
:102D20008BA99CA920E030E040E85FE30E942504E5
:102D300088232CF481E090E098AB8FA73FC069A96D
:102D40007AA98BA99CA920E03FEF4FE757E40E94A6
:102D5000C50318164CF56DA97EA98FA998AD20E082
:102D600030E040E251E40E941F02DC01CB01BC01D3
:102D7000CD010E944900DC01CB0198AB8FA70FC0A9
:102D800088EC90E09EA78DA78DA59EA50197F1F7F1
:102D90009EA78DA78FA598A9019798AB8FA78FA500
:102DA00098A9009769F714C069A97AA98BA99CA969
:102DB0000E944900DC01CB0198AB8FA78FA598A991
:102DC0009CA78BA78BA59CA50197F1F79CA78BA728
:102DD000DE01A45BBF4FFE01E45BFF4F80818F5F8C
:102DE0008C93FE01E35BFF4F8081882F90E09C0174
:102DF000205D3F4FFE01E15BFF4F8081882F90E017
:102E00002817390729F0FE01E65BFF4F81E0808338
:102E100080E090E0AAEFB3E48FA398A7A9A7BAA790
:102E20006FA178A589A59AA520E030E04AEF54E487
:102E30000E941F02DC01CB018BA39CA3ADA3BEA308
:102E40006BA17CA18DA19EA120E030E040E85FE372
:102E50000E94250488232CF481E090E09AA389A3A2
:102E60003FC06BA17CA18DA19EA120E03FEF4FE769
:102E700057E40E94C50318164CF56FA178A589A5E3
:102E80009AA520E030E040E251E40E941F02DC01FC
:102E9000CB01BC01CD010E944900DC01CB019AA30A
:102EA00089A30FC088EC90E098A38F8F8F8D98A195
:102EB0000197F1F798A38F8F89A19AA101979AA3FF
:102EC00089A389A19AA1009769F7E0C06BA17CA1B1
:102ED0008DA19EA10E944900DC01CB019AA389A388
:102EE00089A19AA19E8F8D8F8D8D9E8D0197F1F76F
:102EF0009E8F8D8FCBC0FE01E35BFF4F80818332BD
:102F000009F0C4C0FE01E65BFF4F8081813039F0DB
:102F1000FE01E45BFF4F8081843008F0A3C0DE0136
:102F2000A75BBF4FFE01E75BFF4F80818F5F8C93F4
:102F3000FE01E75BFF4F8081833039F480E06BE076
:102F400070E041E00E9484093AC181E00E94720E63
:102F500089E890E00E94CE1180E090E0AAE7B4E416
:102F6000898F9A8FAB8FBC8F698D7A8D8B8D9C8D5D
:102F700020E030E04AEF54E40E941F02DC01CB0164
:102F80008D8B9E8BAF8BB88F6D897E898F89988D45
:102F900020E030E040E85FE30E94250488232CF421
:102FA00081E090E09C8B8B8B3FC06D897E898F89FF
:102FB000988D20E03FEF4FE757E40E94C5031816B5
:102FC0004CF5698D7A8D8B8D9C8D20E030E040E250
:102FD00051E40E941F02DC01CB01BC01CD010E9423
:102FE0004900DC01CB019C8B8B8B0FC088EC90E0FF
:102FF0009A8B898B89899A890197F1F79A8B898BAA
:103000008B899C8901979C8B8B8B8B899C890097E2
:1030100069F714C06D897E898F89988D0E94490057
:10302000DC01CB019C8B8B8B8B899C89988B8F8748
:103030008F8598890197F1F7988B8F8781E00E949F
:10304000720EFE01E55BFF4F1082FE01E95BFF4F50
:103050001082FE01E65BFF4F1082FE01E45BFF4F32
:10306000108214C081E00E94720E8AE990E00E94F2
:10307000CE11FE01E85BFF4F81E08083FE01E55B3E
:10308000FF4F1082FE01E75BFF4F1082FE01E85BFD
:10309000FF4F8081813009F08BC08AE50E94401388
:1030A00080E090E0AAE7B4E48B879C87AD87BE8779
:1030B0006B857C858D859E8520E030E04AEF54E469
:1030C0000E941F02DC01CB018F839887A987BA87F2
:1030D0006F81788589859A8520E030E040E85FE35C
:1030E0000E94250488232CF481E090E09E838D8348
:1030F0003FC06F81788589859A8520E03FEF4FE753
:1031000057E40E94C50318164CF56B857C858D85A8
:103110009E8520E030E040E251E40E941F02DC0185
:10312000CB01BC01CD010E944900DC01CB019E8393
:103130008D830FC088EC90E09C838B838B819C8176
:103140000197F1F79C838B838D819E8101979E83EC
:103150008D838D819E81009769F714C06F8178857A
:1031600089859A850E944900DC01CB019E838D836D
:103170008D819E819A83898389819A810197F1F754
:103180009A83898380E00E94401381E00E94720E3E
:10319000FE01E85BFF4F1082FE01E55BFF4F1082EE
:1031A000FE01E95BFF4F1082FE01E45BFF4F1082DE
:1031B000FE01E25BFF4F8081813009F03FCD81E06D
:1031C0000E94720E8DEA90E00E94CE110E940707C5
:1031D00081E00E945F1280E090E0C15BDF4F0FB69C
:1031E000F894DEBF0FBECDBFCF91DF911F910F913D
:1031F00008952F923F924F925F926F927F928F929B
:103200009F92AF92BF92CF92DF92EF92FF920F9375
:103210001F93CF93DF93CDB7DEB7CA1BDB0B0FB67F
:10322000F894DEBF0FBECDBF09942A88398848883C
:103230005F846E847D848C849B84AA84B984C884D2
:10324000DF80EE80FD800C811B81AA81B981CE0FC9
:10325000D11D0FB6F894DEBF0FBECDBFED010895AE
:04326000F894FFCF10
:1032640057656C636F6D6520546F20486F6D650002
:1032740050617373776F7264203A2000547279201E
:10328400416761696E203A2000496E76616C696419
:103294002050617373776F72640057656C636F6D50
:1032A4006520486F6D652E2E2E2E2E2E002053790C
:1032B4007374656D20426C6F636B6564000000007D
:1032C40000000000000001020203030303040404DD
:1032D400040404040405050505050505050505059F
:1032E400050505050506060606060606060606067F
:1032F400060606060606060606060606060606066A
:10330400060606060607070707070707070707074E
:103314000707070707070707070707070707070739
:103324000707070707070707070707070707070729
:103334000707070707070707070707070707070719
:1033440007070707070808080808080808080808FE
:1033540008080808080808080808080808080808E9
:1033640008080808080808080808080808080808D9
:1033740008080808080808080808080808080808C9
:1033840008080808080808080808080808080808B9
:1033940008080808080808080808080808080808A9
:1033A4000808080808080808080808080808080899
:1033B4000808080808080808080808080808080889
:0633C400080808080800DB
:00000001FF
